:020000040000FA
:100000000C945D000C9485000C9485000C94850084
:100010000C9485000C9485000C9485000C9485004C
:100020000C9485000C9485000C9485000C9485003C
:100030000C9485000C9485000C9485000C9485002C
:100040000C9466020C9485000C94D6020C94B002B9
:100050000C9485000C9485000C9485000C9485000C
:100060000C9485000C9485000000000024002700FB
:100070002A0000000000250028002B0004040404CE
:100080000404040402020202020203030303030342
:10009000010204081020408001020408102001021F
:1000A00004081020000000080002010000030407FB
:1000B0000000000000000000390411241FBECFEF33
:1000C000D8E0DEBFCDBF11E0A0E0B1E0ECEDF8E09C
:1000D00002C005900D92A231B107D9F721E0A2E14B
:1000E000B1E001C01D92A33CB207E1F710E0CDE5FD
:1000F000D0E004C02197FE010E946604CC35D107F0
:10010000C9F70E9408030C946C040C940000E6E20A
:10011000F1E0A089B18982E08C93A485B5851C9219
:10012000A685B78586E68C93108EA489B58986E06E
:100130008C93A289B3898C9180618C93A289B389B5
:100140008C9188608C93A289B3898C9180688C9300
:100150000288F389E02D80818F7D80830895E5EA10
:10016000F0E02491E1E9F0E09491EDE7F0E0E49132
:10017000EE23C9F0222339F0233001F1A8F4213015
:1001800019F1223029F1F0E0EE0FFF1FEE58FF4F7A
:10019000A591B4912FB7F894EC91811126C0909558
:1001A0009E239C932FBF08952730A9F02830C9F0D3
:1001B000243049F7209180002F7D03C020918000DA
:1001C0002F7720938000DFCF24B52F7724BDDBCF9E
:1001D00024B52F7DFBCF2091B0002F772093B00066
:1001E000D2CF2091B0002F7DF9CF9E2BDACF823075
:1001F000910538F0880F991F880F991F059701976F
:10020000F1F708953FB7F89480912201909123016E
:10021000A0912401B091250126B5A89B05C02F3FD0
:1002200019F00196A11DB11D3FBFBA2FA92F982F1C
:100230008827BC01CD01620F711D811D911D42E017
:10024000660F771F881F991F4A95D1F708958F92DF
:100250009F92AF92BF92CF92DF92EF92FF924B01AB
:100260005C010E9402016B017C010E9402016C1979
:100270007D098E099F09683E734081059105A8F3A9
:1002800021E0821A9108A108B10888EEC80E83E027
:10029000D81EE11CF11C81149104A104B10429F7BA
:1002A000FF90EF90DF90CF90BF90AF909F908F9096
:1002B0000895AF92BF92CF92DF92EF92FF920F9389
:1002C0001F93CF93DF936C017B018B01040F151FEC
:1002D000EB015E01AE18BF08C017D10759F0699154
:1002E000D601ED91FC910190F081E02DC6010995B8
:1002F000892B79F7C501DF91CF911F910F91FF9065
:10030000EF90DF90CF90BF90AF900895FC01538D98
:10031000448D252F30E0842F90E0821B930B5417DF
:1003200010F0CF96089501970895FC01918D828D6C
:10033000981761F0A28DAE0FBF2FB11D5D968C9105
:10034000928D9F5F9F73928F90E008958FEF9FEF44
:100350000895FC01918D828D981731F0828DE80F00
:10036000F11D858D90E008958FEF9FEF0895FC01BA
:10037000918D228D892F90E0805C9F4F821B910987
:100380008F739927089586E291E00E94B70121E0DA
:10039000892B09F420E0822F089580E090E0892BDA
:1003A00029F00E94C30181110C9400000895FC0102
:1003B000A48DA80FB92FB11DA35ABF4F2C91848DC6
:1003C00090E001968F739927848FA689B7892C9323
:1003D000A089B1898C91837080648C93938D848D76
:1003E000981306C00288F389E02D80818F7D808379
:1003F0000895EF92FF920F931F93CF93DF93EC0139
:1004000081E0888F9B8D8C8D98131AC0E889F989BB
:10041000808185FF15C09FB7F894EE89FF896083BE
:10042000E889F98980818370806480839FBF81E03F
:1004300090E0DF91CF911F910F91FF90EF90089581
:10044000F62E0B8D10E00F5F1F4F0F731127E02E5C
:100450008C8D8E110CC00FB607FCFACFE889F98994
:10046000808185FFF5CFCE010E94D701F1CFEB8DC2
:10047000EC0FFD2FF11DE35AFF4FF0829FB7F89468
:100480000B8FEA89FB8980818062CFCFCF93DF9386
:10049000EC01888D8823B9F0AA89BB89E889F9899C
:1004A0008C9185FD03C0808186FD0DC00FB607FCD1
:1004B000F7CF8C9185FFF2CF808185FFEDCFCE0104
:1004C0000E94D701E9CFDF91CF9108951F920F923B
:1004D0000FB60F9211242F933F938F939F93AF9357
:1004E000BF9380911E0190911F01A0912001B091B6
:1004F000210130911D0123E0230F2D3758F501967E
:10050000A11DB11D20931D0180931E0190931F0119
:10051000A0932001B09321018091220190912301A9
:10052000A0912401B09125010196A11DB11D8093D8
:10053000220190932301A0932401B0932501BF9140
:10054000AF919F918F913F912F910F900FBE0F9080
:100550001F90189526E8230F0296A11DB11DD2CF3A
:100560001F920F920FB60F9211242F933F934F9328
:100570005F936F937F938F939F93AF93BF93EF930B
:10058000FF9386E291E00E94D701FF91EF91BF9126
:10059000AF919F918F917F916F915F914F913F911B
:1005A0002F910F900FBE0F901F9018951F920F92D2
:1005B0000FB60F9211242F938F939F93EF93FF9376
:1005C000E0913601F09137018081E0913C01F0919A
:1005D0003D0182FD1BC0908180913F018F5F8F7331
:1005E00020914001821741F0E0913F01F0E0EA5D87
:1005F000FE4F958F80933F01FF91EF919F918F91D7
:100600002F910F900FBE0F901F9018958081F4CFFF
:10061000789484B5826084BD84B5816084BD85B5DD
:10062000826085BD85B5816085BD80916E008160E9
:1006300080936E001092810080918100826080938F
:100640008100809181008160809381008091800091
:100650008160809380008091B10084608093B100BC
:100660008091B00081608093B00080917A008460B6
:1006700080937A0080917A00826080937A008091E2
:100680007A00816080937A0080917A0080688093FC
:100690007A001092C100E1E9F0E02491EDE7F0E08A
:1006A0008491882399F090E0880F991FFC01E85904
:1006B000FF4FA591B491FC01EE58FF4F85919491A5
:1006C0008FB7F894EC91E22BEC938FBF0E948700D8
:1006D00081E00E94AF0061E070E080E090E00E9465
:1006E0002701D5E2FD2E12EEE12E00E8D02E85ED99
:1006F000C82E90EBB92E00E010E0A0901C018A2DCE
:1007000090E0BC0175956795AC01B4E055954795AF
:10071000BA95E1F7FC01C3E0F595E795CA95E1F7D5
:10072000DB01A427EA27E170A5FAFF27F0F921E011
:1007300030E0FE1711F030E020E03695322F22270E
:1007400037952795959587959595879586274A2579
:1007500084278170C82F80E0D82FCE01F6E0880F63
:10076000991FFA95E1F7282B8A2D8F73282B209358
:100770001B0186E291E00E944602E0913801F0916F
:10078000390180818F7E8083E0913801F0913901B9
:100790008081877F8083E0913801F09139018081E9
:1007A0008F778083E0913801F091390180818F7DCE
:1007B00080838091400180933F0180E00E94AF00E0
:1007C00080E293E00E94F70081E00E94AF0084E69F
:1007D00090E00E94F7000E94870065E586E291E0C4
:1007E0000E94F90160911B0186E291E00E94F901EB
:1007F00088EC90E00E94F700F0921201E092130161
:10080000D0921401C0921501B0921601E2E1F1E01C
:1008100090E080E02191820F911D8F3F910519F0AA
:1008200010F08F5F910921E0E731F20799F7809589
:100830008093170146E050E062E171E086E291E0CA
:100840000E94590166E070E080E090E00E9427017C
:1008500080911C018F5F80931C010115110509F423
:100860004CCF0E94C301882309F447CF0E940000A7
:1008700044CFE6E2F1E01382128288EE93E0A0E03A
:10088000B0E084839583A683B78384E091E091836D
:10089000808385EC90E09587848784EC90E097874F
:1008A000868780EC90E0918B808B81EC90E0938B3D
:1008B000828B82EC90E0958B848B86EC90E0978B1A
:1008C000868B118E128E138E148E0895EE0FFF1FDD
:1008D0000590F491E02D0994F894FFCF00000000FA
:0E08E000F901590186014602B7019501A901EF
:107E0000112484B714BE81FFF0D085E080938100F7
:107E100082E08093C00088E18093C10086E0809377
:107E2000C20080E18093C4008EE0C9D0259A86E02C
:107E300020E33CEF91E0309385002093840096BBD3
:107E4000B09BFECF1D9AA8958150A9F7CC24DD24C4
:107E500088248394B5E0AB2EA1E19A2EF3E0BF2EE7
:107E6000A2D0813461F49FD0082FAFD0023811F036
:107E7000013811F484E001C083E08DD089C08234E0
:107E800011F484E103C0853419F485E0A6D080C0E4
:107E9000853579F488D0E82EFF2485D0082F10E0AE
:107EA000102F00270E291F29000F111F8ED06801E7
:107EB0006FC0863521F484E090D080E0DECF843638
:107EC00009F040C070D06FD0082F6DD080E0C81688
:107ED00080E7D80618F4F601B7BEE895C0E0D1E017
:107EE00062D089930C17E1F7F0E0CF16F0E7DF06D8
:107EF00018F0F601B7BEE89568D007B600FCFDCFD4
:107F0000A601A0E0B1E02C9130E011968C91119780
:107F100090E0982F8827822B932B1296FA010C0160
:107F200087BEE89511244E5F5F4FF1E0A038BF0790
:107F300051F7F601A7BEE89507B600FCFDCF97BE46
:107F4000E89526C08437B1F42ED02DD0F82E2BD052
:107F50003CD0F601EF2C8F010F5F1F4F84911BD097
:107F6000EA94F801C1F70894C11CD11CFA94CF0C13
:107F7000D11C0EC0853739F428D08EE10CD085E9AC
:107F80000AD08FE07ACF813511F488E018D01DD067
:107F900080E101D065CF982F8091C00085FFFCCF94
:107FA0009093C60008958091C00087FFFCCF809118
:107FB000C00084FD01C0A8958091C6000895E0E648
:107FC000F0E098E1908380830895EDDF803219F02E
:107FD00088E0F5DFFFCF84E1DECF1F93182FE3DFCA
:107FE0001150E9F7F2DF1F91089580E0E8DFEE27F6
:047FF000FF270994CA
:027FFE00040479
:00000001FF
